{
  "_format": "hh-sol-artifact-1",
  "contractName": "MyEpicGame",
  "sourceName": "contracts/MyEpicGame.sol",
  "abi": [
    {
      "inputs": [
        {
          "internalType": "string[]",
          "name": "characterNames",
          "type": "string[]"
        },
        {
          "internalType": "string[]",
          "name": "characterImageURIs",
          "type": "string[]"
        },
        {
          "internalType": "uint256[]",
          "name": "characterHp",
          "type": "uint256[]"
        },
        {
          "internalType": "uint256[]",
          "name": "characterAttackDmg",
          "type": "uint256[]"
        },
        {
          "internalType": "string",
          "name": "bossName",
          "type": "string"
        },
        {
          "internalType": "string",
          "name": "bossImageURI",
          "type": "string"
        },
        {
          "internalType": "uint256",
          "name": "bossHp",
          "type": "uint256"
        },
        {
          "internalType": "uint256",
          "name": "bossAttackDamage",
          "type": "uint256"
        }
      ],
      "stateMutability": "nonpayable",
      "type": "constructor"
    },
    {
      "anonymous": false,
      "inputs": [
        {
          "indexed": true,
          "internalType": "address",
          "name": "owner",
          "type": "address"
        },
        {
          "indexed": true,
          "internalType": "address",
          "name": "approved",
          "type": "address"
        },
        {
          "indexed": true,
          "internalType": "uint256",
          "name": "tokenId",
          "type": "uint256"
        }
      ],
      "name": "Approval",
      "type": "event"
    },
    {
      "anonymous": false,
      "inputs": [
        {
          "indexed": true,
          "internalType": "address",
          "name": "owner",
          "type": "address"
        },
        {
          "indexed": true,
          "internalType": "address",
          "name": "operator",
          "type": "address"
        },
        {
          "indexed": false,
          "internalType": "bool",
          "name": "approved",
          "type": "bool"
        }
      ],
      "name": "ApprovalForAll",
      "type": "event"
    },
    {
      "anonymous": false,
      "inputs": [
        {
          "indexed": false,
          "internalType": "address",
          "name": "sender",
          "type": "address"
        },
        {
          "indexed": false,
          "internalType": "uint256",
          "name": "newBossHp",
          "type": "uint256"
        },
        {
          "indexed": false,
          "internalType": "uint256",
          "name": "newPlayerHp",
          "type": "uint256"
        }
      ],
      "name": "AttackComplete",
      "type": "event"
    },
    {
      "anonymous": false,
      "inputs": [
        {
          "indexed": false,
          "internalType": "address",
          "name": "sender",
          "type": "address"
        },
        {
          "indexed": false,
          "internalType": "uint256",
          "name": "tokenId",
          "type": "uint256"
        },
        {
          "indexed": false,
          "internalType": "uint256",
          "name": "characterIndex",
          "type": "uint256"
        }
      ],
      "name": "CharacterNFTMinted",
      "type": "event"
    },
    {
      "anonymous": false,
      "inputs": [
        {
          "indexed": true,
          "internalType": "address",
          "name": "from",
          "type": "address"
        },
        {
          "indexed": true,
          "internalType": "address",
          "name": "to",
          "type": "address"
        },
        {
          "indexed": true,
          "internalType": "uint256",
          "name": "tokenId",
          "type": "uint256"
        }
      ],
      "name": "Transfer",
      "type": "event"
    },
    {
      "inputs": [
        {
          "internalType": "address",
          "name": "to",
          "type": "address"
        },
        {
          "internalType": "uint256",
          "name": "tokenId",
          "type": "uint256"
        }
      ],
      "name": "approve",
      "outputs": [],
      "stateMutability": "nonpayable",
      "type": "function"
    },
    {
      "inputs": [],
      "name": "attackBoss",
      "outputs": [],
      "stateMutability": "nonpayable",
      "type": "function"
    },
    {
      "inputs": [
        {
          "internalType": "address",
          "name": "owner",
          "type": "address"
        }
      ],
      "name": "balanceOf",
      "outputs": [
        {
          "internalType": "uint256",
          "name": "",
          "type": "uint256"
        }
      ],
      "stateMutability": "view",
      "type": "function"
    },
    {
      "inputs": [],
      "name": "bigBoss",
      "outputs": [
        {
          "internalType": "string",
          "name": "name",
          "type": "string"
        },
        {
          "internalType": "string",
          "name": "imageURI",
          "type": "string"
        },
        {
          "internalType": "uint256",
          "name": "hp",
          "type": "uint256"
        },
        {
          "internalType": "uint256",
          "name": "maxHp",
          "type": "uint256"
        },
        {
          "internalType": "uint256",
          "name": "attackDamage",
          "type": "uint256"
        }
      ],
      "stateMutability": "view",
      "type": "function"
    },
    {
      "inputs": [],
      "name": "checkIfUserHasNFT",
      "outputs": [
        {
          "components": [
            {
              "internalType": "uint256",
              "name": "characterIndex",
              "type": "uint256"
            },
            {
              "internalType": "string",
              "name": "name",
              "type": "string"
            },
            {
              "internalType": "string",
              "name": "imageURI",
              "type": "string"
            },
            {
              "internalType": "uint256",
              "name": "hp",
              "type": "uint256"
            },
            {
              "internalType": "uint256",
              "name": "maxHp",
              "type": "uint256"
            },
            {
              "internalType": "uint256",
              "name": "attackDamage",
              "type": "uint256"
            }
          ],
          "internalType": "struct MyEpicGame.CharacterAttributes",
          "name": "",
          "type": "tuple"
        }
      ],
      "stateMutability": "view",
      "type": "function"
    },
    {
      "inputs": [],
      "name": "getAllDefaultCharacters",
      "outputs": [
        {
          "components": [
            {
              "internalType": "uint256",
              "name": "characterIndex",
              "type": "uint256"
            },
            {
              "internalType": "string",
              "name": "name",
              "type": "string"
            },
            {
              "internalType": "string",
              "name": "imageURI",
              "type": "string"
            },
            {
              "internalType": "uint256",
              "name": "hp",
              "type": "uint256"
            },
            {
              "internalType": "uint256",
              "name": "maxHp",
              "type": "uint256"
            },
            {
              "internalType": "uint256",
              "name": "attackDamage",
              "type": "uint256"
            }
          ],
          "internalType": "struct MyEpicGame.CharacterAttributes[]",
          "name": "",
          "type": "tuple[]"
        }
      ],
      "stateMutability": "view",
      "type": "function"
    },
    {
      "inputs": [],
      "name": "getAllPlayers",
      "outputs": [
        {
          "components": [
            {
              "internalType": "uint256",
              "name": "characterIndex",
              "type": "uint256"
            },
            {
              "internalType": "string",
              "name": "name",
              "type": "string"
            },
            {
              "internalType": "string",
              "name": "imageURI",
              "type": "string"
            },
            {
              "internalType": "uint256",
              "name": "hp",
              "type": "uint256"
            },
            {
              "internalType": "uint256",
              "name": "maxHp",
              "type": "uint256"
            },
            {
              "internalType": "uint256",
              "name": "attackDamage",
              "type": "uint256"
            }
          ],
          "internalType": "struct MyEpicGame.CharacterAttributes[]",
          "name": "",
          "type": "tuple[]"
        }
      ],
      "stateMutability": "view",
      "type": "function"
    },
    {
      "inputs": [
        {
          "internalType": "uint256",
          "name": "tokenId",
          "type": "uint256"
        }
      ],
      "name": "getApproved",
      "outputs": [
        {
          "internalType": "address",
          "name": "",
          "type": "address"
        }
      ],
      "stateMutability": "view",
      "type": "function"
    },
    {
      "inputs": [],
      "name": "getBigBoss",
      "outputs": [
        {
          "components": [
            {
              "internalType": "string",
              "name": "name",
              "type": "string"
            },
            {
              "internalType": "string",
              "name": "imageURI",
              "type": "string"
            },
            {
              "internalType": "uint256",
              "name": "hp",
              "type": "uint256"
            },
            {
              "internalType": "uint256",
              "name": "maxHp",
              "type": "uint256"
            },
            {
              "internalType": "uint256",
              "name": "attackDamage",
              "type": "uint256"
            }
          ],
          "internalType": "struct MyEpicGame.BigBoss",
          "name": "",
          "type": "tuple"
        }
      ],
      "stateMutability": "view",
      "type": "function"
    },
    {
      "inputs": [
        {
          "internalType": "address",
          "name": "owner",
          "type": "address"
        },
        {
          "internalType": "address",
          "name": "operator",
          "type": "address"
        }
      ],
      "name": "isApprovedForAll",
      "outputs": [
        {
          "internalType": "bool",
          "name": "",
          "type": "bool"
        }
      ],
      "stateMutability": "view",
      "type": "function"
    },
    {
      "inputs": [
        {
          "internalType": "uint256",
          "name": "_characterIndex",
          "type": "uint256"
        }
      ],
      "name": "mintCharacterNFT",
      "outputs": [],
      "stateMutability": "nonpayable",
      "type": "function"
    },
    {
      "inputs": [],
      "name": "name",
      "outputs": [
        {
          "internalType": "string",
          "name": "",
          "type": "string"
        }
      ],
      "stateMutability": "view",
      "type": "function"
    },
    {
      "inputs": [
        {
          "internalType": "uint256",
          "name": "",
          "type": "uint256"
        }
      ],
      "name": "nftHolderAttributes",
      "outputs": [
        {
          "internalType": "uint256",
          "name": "characterIndex",
          "type": "uint256"
        },
        {
          "internalType": "string",
          "name": "name",
          "type": "string"
        },
        {
          "internalType": "string",
          "name": "imageURI",
          "type": "string"
        },
        {
          "internalType": "uint256",
          "name": "hp",
          "type": "uint256"
        },
        {
          "internalType": "uint256",
          "name": "maxHp",
          "type": "uint256"
        },
        {
          "internalType": "uint256",
          "name": "attackDamage",
          "type": "uint256"
        }
      ],
      "stateMutability": "view",
      "type": "function"
    },
    {
      "inputs": [
        {
          "internalType": "address",
          "name": "",
          "type": "address"
        }
      ],
      "name": "nftHolders",
      "outputs": [
        {
          "internalType": "uint256",
          "name": "",
          "type": "uint256"
        }
      ],
      "stateMutability": "view",
      "type": "function"
    },
    {
      "inputs": [
        {
          "internalType": "uint256",
          "name": "tokenId",
          "type": "uint256"
        }
      ],
      "name": "ownerOf",
      "outputs": [
        {
          "internalType": "address",
          "name": "",
          "type": "address"
        }
      ],
      "stateMutability": "view",
      "type": "function"
    },
    {
      "inputs": [
        {
          "internalType": "address",
          "name": "from",
          "type": "address"
        },
        {
          "internalType": "address",
          "name": "to",
          "type": "address"
        },
        {
          "internalType": "uint256",
          "name": "tokenId",
          "type": "uint256"
        }
      ],
      "name": "safeTransferFrom",
      "outputs": [],
      "stateMutability": "nonpayable",
      "type": "function"
    },
    {
      "inputs": [
        {
          "internalType": "address",
          "name": "from",
          "type": "address"
        },
        {
          "internalType": "address",
          "name": "to",
          "type": "address"
        },
        {
          "internalType": "uint256",
          "name": "tokenId",
          "type": "uint256"
        },
        {
          "internalType": "bytes",
          "name": "data",
          "type": "bytes"
        }
      ],
      "name": "safeTransferFrom",
      "outputs": [],
      "stateMutability": "nonpayable",
      "type": "function"
    },
    {
      "inputs": [
        {
          "internalType": "address",
          "name": "operator",
          "type": "address"
        },
        {
          "internalType": "bool",
          "name": "approved",
          "type": "bool"
        }
      ],
      "name": "setApprovalForAll",
      "outputs": [],
      "stateMutability": "nonpayable",
      "type": "function"
    },
    {
      "inputs": [
        {
          "internalType": "bytes4",
          "name": "interfaceId",
          "type": "bytes4"
        }
      ],
      "name": "supportsInterface",
      "outputs": [
        {
          "internalType": "bool",
          "name": "",
          "type": "bool"
        }
      ],
      "stateMutability": "view",
      "type": "function"
    },
    {
      "inputs": [],
      "name": "symbol",
      "outputs": [
        {
          "internalType": "string",
          "name": "",
          "type": "string"
        }
      ],
      "stateMutability": "view",
      "type": "function"
    },
    {
      "inputs": [
        {
          "internalType": "uint256",
          "name": "_tokenId",
          "type": "uint256"
        }
      ],
      "name": "tokenURI",
      "outputs": [
        {
          "internalType": "string",
          "name": "",
          "type": "string"
        }
      ],
      "stateMutability": "view",
      "type": "function"
    },
    {
      "inputs": [
        {
          "internalType": "address",
          "name": "from",
          "type": "address"
        },
        {
          "internalType": "address",
          "name": "to",
          "type": "address"
        },
        {
          "internalType": "uint256",
          "name": "tokenId",
          "type": "uint256"
        }
      ],
      "name": "transferFrom",
      "outputs": [],
      "stateMutability": "nonpayable",
      "type": "function"
    }
  ],
  "bytecode": "0x60806040523480156200001157600080fd5b506040516200596a3803806200596a833981810160405281019062000037919062000a5a565b6040518060400160405280600781526020017f4d616c617a616e000000000000000000000000000000000000000000000000008152506040518060400160405280600381526020017f4d5a4e00000000000000000000000000000000000000000000000000000000008152508160009080519060200190620000bb929190620007ed565b508060019080519060200190620000d4929190620007ed565b5050506040518060a0016040528085815260200184815260200183815260200183815260200182815250600660008201518160000190805190602001906200011e929190620007ed565b5060208201518160010190805190602001906200013d929190620007ed565b50604082015181600201556060820151816003015560808201518160040155905050620002c06040518060600160405280602a815260200162005940602a9139600660000180546200018f9062000ddd565b80601f0160208091040260200160405190810160405280929190818152602001828054620001bd9062000ddd565b80156200020e5780601f10620001e2576101008083540402835291602001916200020e565b820191906000526020600020905b815481529060010190602001808311620001f057829003601f168201915b5050505050600660020154600660010180546200022b9062000ddd565b80601f0160208091040260200160405190810160405280929190818152602001828054620002599062000ddd565b8015620002aa5780601f106200027e57610100808354040283529160200191620002aa565b820191906000526020600020905b8154815290600101906020018083116200028c57829003601f168201915b50505050506200070260201b62001e491760201c565b60005b8851811015620006dc57600c6040518060c001604052808381526020018b84815181106200031a577f4e487b7100000000000000000000000000000000000000000000000000000000600052603260045260246000fd5b602002602001015181526020018a848151811062000361577f4e487b7100000000000000000000000000000000000000000000000000000000600052603260045260246000fd5b60200260200101518152602001898481518110620003a8577f4e487b7100000000000000000000000000000000000000000000000000000000600052603260045260246000fd5b60200260200101518152602001898481518110620003ef577f4e487b7100000000000000000000000000000000000000000000000000000000600052603260045260246000fd5b6020026020010151815260200188848151811062000436577f4e487b7100000000000000000000000000000000000000000000000000000000600052603260045260246000fd5b6020026020010151815250908060018154018082558091505060019003906000526020600020906006020160009091909190915060008201518160000155602082015181600101908051906020019062000492929190620007ed565b506040820151816002019080519060200190620004b1929190620007ed565b50606082015181600301556080820151816004015560a0820151816005015550506000600c82815481106200050f577f4e487b7100000000000000000000000000000000000000000000000000000000600052603260045260246000fd5b90600052602060002090600602016040518060c001604052908160008201548152602001600182018054620005449062000ddd565b80601f0160208091040260200160405190810160405280929190818152602001828054620005729062000ddd565b8015620005c35780601f106200059757610100808354040283529160200191620005c3565b820191906000526020600020905b815481529060010190602001808311620005a557829003601f168201915b50505050508152602001600282018054620005de9062000ddd565b80601f01602080910402602001604051908101604052809291908181526020018280546200060c9062000ddd565b80156200065d5780601f1062000631576101008083540402835291602001916200065d565b820191906000526020600020905b8154815290600101906020018083116200063f57829003601f168201915b5050505050815260200160038201548152602001600482015481526020016005820154815250509050620006c46040518060600160405280602581526020016200591b602591398260200151836060015184604001516200070260201b62001e491760201c565b50600181620006d4919062000d40565b9050620002c3565b50620006f4600b620007ae60201b62001eeb1760201c565b505050505050505062000f01565b620007a8848484846040516024016200071f949392919062000c05565b6040516020818303038152906040527f8d142cdd000000000000000000000000000000000000000000000000000000007bffffffffffffffffffffffffffffffffffffffffffffffffffffffff19166020820180517bffffffffffffffffffffffffffffffffffffffffffffffffffffffff8381831617835250505050620007c460201b60201c565b50505050565b6001816000016000828254019250508190555050565b60008151905060006a636f6e736f6c652e6c6f679050602083016000808483855afa5050505050565b828054620007fb9062000ddd565b90600052602060002090601f0160209004810192826200081f57600085556200086b565b82601f106200083a57805160ff19168380011785556200086b565b828001600101855582156200086b579182015b828111156200086a5782518255916020019190600101906200084d565b5b5090506200087a91906200087e565b5090565b5b80821115620008995760008160009055506001016200087f565b5090565b6000620008b4620008ae8462000c90565b62000c67565b9050808382526020820190508260005b85811015620008f85781518501620008dd888262000a16565b845260208401935060208301925050600181019050620008c4565b5050509392505050565b600062000919620009138462000cbf565b62000c67565b905080838252602082019050828560208602820111156200093957600080fd5b60005b858110156200096d578162000952888262000a43565b8452602084019350602083019250506001810190506200093c565b5050509392505050565b60006200098e620009888462000cee565b62000c67565b905082815260208101848484011115620009a757600080fd5b620009b484828562000da7565b509392505050565b600082601f830112620009ce57600080fd5b8151620009e08482602086016200089d565b91505092915050565b600082601f830112620009fb57600080fd5b815162000a0d84826020860162000902565b91505092915050565b600082601f83011262000a2857600080fd5b815162000a3a84826020860162000977565b91505092915050565b60008151905062000a548162000ee7565b92915050565b600080600080600080600080610100898b03121562000a7857600080fd5b600089015167ffffffffffffffff81111562000a9357600080fd5b62000aa18b828c01620009bc565b985050602089015167ffffffffffffffff81111562000abf57600080fd5b62000acd8b828c01620009bc565b975050604089015167ffffffffffffffff81111562000aeb57600080fd5b62000af98b828c01620009e9565b965050606089015167ffffffffffffffff81111562000b1757600080fd5b62000b258b828c01620009e9565b955050608089015167ffffffffffffffff81111562000b4357600080fd5b62000b518b828c0162000a16565b94505060a089015167ffffffffffffffff81111562000b6f57600080fd5b62000b7d8b828c0162000a16565b93505060c062000b908b828c0162000a43565b92505060e062000ba38b828c0162000a43565b9150509295985092959890939650565b600062000bc08262000d24565b62000bcc818562000d2f565b935062000bde81856020860162000da7565b62000be98162000ed6565b840191505092915050565b62000bff8162000d9d565b82525050565b6000608082019050818103600083015262000c21818762000bb3565b9050818103602083015262000c37818662000bb3565b905062000c48604083018562000bf4565b818103606083015262000c5c818462000bb3565b905095945050505050565b600062000c7362000c86565b905062000c81828262000e13565b919050565b6000604051905090565b600067ffffffffffffffff82111562000cae5762000cad62000ea7565b5b602082029050602081019050919050565b600067ffffffffffffffff82111562000cdd5762000cdc62000ea7565b5b602082029050602081019050919050565b600067ffffffffffffffff82111562000d0c5762000d0b62000ea7565b5b62000d178262000ed6565b9050602081019050919050565b600081519050919050565b600082825260208201905092915050565b600062000d4d8262000d9d565b915062000d5a8362000d9d565b9250827fffffffffffffffffffffffffffffffffffffffffffffffffffffffffffffffff0382111562000d925762000d9162000e49565b5b828201905092915050565b6000819050919050565b60005b8381101562000dc757808201518184015260208101905062000daa565b8381111562000dd7576000848401525b50505050565b6000600282049050600182168062000df657607f821691505b6020821081141562000e0d5762000e0c62000e78565b5b50919050565b62000e1e8262000ed6565b810181811067ffffffffffffffff8211171562000e405762000e3f62000ea7565b5b80604052505050565b7f4e487b7100000000000000000000000000000000000000000000000000000000600052601160045260246000fd5b7f4e487b7100000000000000000000000000000000000000000000000000000000600052602260045260246000fd5b7f4e487b7100000000000000000000000000000000000000000000000000000000600052604160045260246000fd5b6000601f19601f8301169050919050565b62000ef28162000d9d565b811462000efe57600080fd5b50565b614a0a8062000f116000396000f3fe608060405234801561001057600080fd5b50600436106101425760003560e01c806398da4c95116100b8578063c87b56dd1161007c578063c87b56dd14610392578063c8cf27f4146103c2578063d4f24c5b146103e0578063e985e9c5146103ea578063efa1c4821461041a578063f8b81ef71461043857610142565b806398da4c95146102e5578063a22cb4651461031a578063a9c3267914610336578063b88d4fde14610358578063b953084e1461037457610142565b806323b872dd1161010a57806323b872dd146101ff57806342842e0e1461021b5780636352211e1461023757806370a08231146102675780637df124a11461029757806395d89b41146102c757610142565b806301ffc9a7146101475780630665f9611461017757806306fdde0314610195578063081812fc146101b3578063095ea7b3146101e3575b600080fd5b610161600480360381019061015c91906132be565b610454565b60405161016e9190613add565b60405180910390f35b61017f610536565b60405161018c9190613e36565b60405180910390f35b61019d610692565b6040516101aa9190613af8565b60405180910390f35b6101cd60048036038101906101c89190613310565b610724565b6040516101da9190613a1d565b60405180910390f35b6101fd60048036038101906101f89190613282565b61076a565b005b6102196004803603810190610214919061317c565b610882565b005b6102356004803603810190610230919061317c565b6108e2565b005b610251600480360381019061024c9190613310565b610902565b60405161025e9190613a1d565b60405180910390f35b610281600480360381019061027c9190613117565b6109b4565b60405161028e9190613e7a565b60405180910390f35b6102b160048036038101906102ac9190613117565b610a6c565b6040516102be9190613e7a565b60405180910390f35b6102cf610a84565b6040516102dc9190613af8565b60405180910390f35b6102ff60048036038101906102fa9190613310565b610b16565b60405161031196959493929190613e95565b60405180910390f35b610334600480360381019061032f9190613246565b610c62565b005b61033e610c78565b60405161034f959493929190613bc7565b60405180910390f35b610372600480360381019061036d91906131cb565b610dac565b005b61037c610e0e565b6040516103899190613abb565b60405180910390f35b6103ac60048036038101906103a79190613310565b610fb9565b6040516103b99190613af8565b60405180910390f35b6103ca6111d4565b6040516103d79190613e58565b60405180910390f35b6103e86113ac565b005b61040460048036038101906103ff9190613140565b611739565b6040516104119190613add565b60405180910390f35b6104226117cd565b60405161042f9190613abb565b60405180910390f35b610452600480360381019061044d9190613310565b611a55565b005b60007f80ac58cd000000000000000000000000000000000000000000000000000000007bffffffffffffffffffffffffffffffffffffffffffffffffffffffff1916827bffffffffffffffffffffffffffffffffffffffffffffffffffffffff1916148061051f57507f5b5e139f000000000000000000000000000000000000000000000000000000007bffffffffffffffffffffffffffffffffffffffffffffffffffffffff1916827bffffffffffffffffffffffffffffffffffffffffffffffffffffffff1916145b8061052f575061052e82611f01565b5b9050919050565b61053e612f3e565b60066040518060a001604052908160008201805461055b906141b2565b80601f0160208091040260200160405190810160405280929190818152602001828054610587906141b2565b80156105d45780601f106105a9576101008083540402835291602001916105d4565b820191906000526020600020905b8154815290600101906020018083116105b757829003601f168201915b505050505081526020016001820180546105ed906141b2565b80601f0160208091040260200160405190810160405280929190818152602001828054610619906141b2565b80156106665780601f1061063b57610100808354040283529160200191610666565b820191906000526020600020905b81548152906001019060200180831161064957829003601f168201915b505050505081526020016002820154815260200160038201548152602001600482015481525050905090565b6060600080546106a1906141b2565b80601f01602080910402602001604051908101604052809291908181526020018280546106cd906141b2565b801561071a5780601f106106ef5761010080835404028352916020019161071a565b820191906000526020600020905b8154815290600101906020018083116106fd57829003601f168201915b5050505050905090565b600061072f82611f6b565b6004600083815260200190815260200160002060009054906101000a900473ffffffffffffffffffffffffffffffffffffffff169050919050565b600061077582610902565b90508073ffffffffffffffffffffffffffffffffffffffff168373ffffffffffffffffffffffffffffffffffffffff1614156107e6576040517f08c379a00000000000000000000000000000000000000000000000000000000081526004016107dd90613df6565b60405180910390fd5b8073ffffffffffffffffffffffffffffffffffffffff16610805611fb6565b73ffffffffffffffffffffffffffffffffffffffff16148061083457506108338161082e611fb6565b611739565b5b610873576040517f08c379a000000000000000000000000000000000000000000000000000000000815260040161086a90613d96565b60405180910390fd5b61087d8383611fbe565b505050565b61089361088d611fb6565b82612077565b6108d2576040517f08c379a00000000000000000000000000000000000000000000000000000000081526004016108c990613e16565b60405180910390fd5b6108dd83838361210c565b505050565b6108fd83838360405180602001604052806000815250610dac565b505050565b6000806002600084815260200190815260200160002060009054906101000a900473ffffffffffffffffffffffffffffffffffffffff169050600073ffffffffffffffffffffffffffffffffffffffff168173ffffffffffffffffffffffffffffffffffffffff1614156109ab576040517f08c379a00000000000000000000000000000000000000000000000000000000081526004016109a290613dd6565b60405180910390fd5b80915050919050565b60008073ffffffffffffffffffffffffffffffffffffffff168273ffffffffffffffffffffffffffffffffffffffff161415610a25576040517f08c379a0000000000000000000000000000000000000000000000000000000008152600401610a1c90613d56565b60405180910390fd5b600360008373ffffffffffffffffffffffffffffffffffffffff1673ffffffffffffffffffffffffffffffffffffffff168152602001908152602001600020549050919050565b600e6020528060005260406000206000915090505481565b606060018054610a93906141b2565b80601f0160208091040260200160405190810160405280929190818152602001828054610abf906141b2565b8015610b0c5780601f10610ae157610100808354040283529160200191610b0c565b820191906000526020600020905b815481529060010190602001808311610aef57829003601f168201915b5050505050905090565b600d602052806000526040600020600091509050806000015490806001018054610b3f906141b2565b80601f0160208091040260200160405190810160405280929190818152602001828054610b6b906141b2565b8015610bb85780601f10610b8d57610100808354040283529160200191610bb8565b820191906000526020600020905b815481529060010190602001808311610b9b57829003601f168201915b505050505090806002018054610bcd906141b2565b80601f0160208091040260200160405190810160405280929190818152602001828054610bf9906141b2565b8015610c465780601f10610c1b57610100808354040283529160200191610c46565b820191906000526020600020905b815481529060010190602001808311610c2957829003601f168201915b5050505050908060030154908060040154908060050154905086565b610c74610c6d611fb6565b8383612373565b5050565b6006806000018054610c89906141b2565b80601f0160208091040260200160405190810160405280929190818152602001828054610cb5906141b2565b8015610d025780601f10610cd757610100808354040283529160200191610d02565b820191906000526020600020905b815481529060010190602001808311610ce557829003601f168201915b505050505090806001018054610d17906141b2565b80601f0160208091040260200160405190810160405280929190818152602001828054610d43906141b2565b8015610d905780601f10610d6557610100808354040283529160200191610d90565b820191906000526020600020905b815481529060010190602001808311610d7357829003601f168201915b5050505050908060020154908060030154908060040154905085565b610dbd610db7611fb6565b83612077565b610dfc576040517f08c379a0000000000000000000000000000000000000000000000000000000008152600401610df390613e16565b60405180910390fd5b610e08848484846124e0565b50505050565b6060600c805480602002602001604051908101604052809291908181526020016000905b82821015610fb057838290600052602060002090600602016040518060c001604052908160008201548152602001600182018054610e6f906141b2565b80601f0160208091040260200160405190810160405280929190818152602001828054610e9b906141b2565b8015610ee85780601f10610ebd57610100808354040283529160200191610ee8565b820191906000526020600020905b815481529060010190602001808311610ecb57829003601f168201915b50505050508152602001600282018054610f01906141b2565b80601f0160208091040260200160405190810160405280929190818152602001828054610f2d906141b2565b8015610f7a5780601f10610f4f57610100808354040283529160200191610f7a565b820191906000526020600020905b815481529060010190602001808311610f5d57829003601f168201915b50505050508152602001600382015481526020016004820154815260200160058201548152505081526020019060010190610e32565b50505050905090565b60606000600d60008481526020019081526020016000206040518060c001604052908160008201548152602001600182018054610ff5906141b2565b80601f0160208091040260200160405190810160405280929190818152602001828054611021906141b2565b801561106e5780601f106110435761010080835404028352916020019161106e565b820191906000526020600020905b81548152906001019060200180831161105157829003601f168201915b50505050508152602001600282018054611087906141b2565b80601f01602080910402602001604051908101604052809291908181526020018280546110b3906141b2565b80156111005780601f106110d557610100808354040283529160200191611100565b820191906000526020600020905b8154815290600101906020018083116110e357829003601f168201915b50505050508152602001600382015481526020016004820154815260200160058201548152505090506000611138826060015161253c565b90506000611149836080015161253c565b9050600061115a8460a0015161253c565b905060006111a0856020015161116f8961253c565b876040015187878760405160200161118c96959493929190613956565b6040516020818303038152906040526126e9565b90506000816040516020016111b591906139fb565b6040516020818303038152906040529050809650505050505050919050565b6111dc612f6d565b6000600e60003373ffffffffffffffffffffffffffffffffffffffff1673ffffffffffffffffffffffffffffffffffffffff168152602001908152602001600020549050600081111561139b57600d60008281526020019081526020016000206040518060c001604052908160008201548152602001600182018054611261906141b2565b80601f016020809104026020016040519081016040528092919081815260200182805461128d906141b2565b80156112da5780601f106112af576101008083540402835291602001916112da565b820191906000526020600020905b8154815290600101906020018083116112bd57829003601f168201915b505050505081526020016002820180546112f3906141b2565b80601f016020809104026020016040519081016040528092919081815260200182805461131f906141b2565b801561136c5780601f106113415761010080835404028352916020019161136c565b820191906000526020600020905b81548152906001019060200180831161134f57829003601f168201915b5050505050815260200160038201548152602001600482015481526020016005820154815250509150506113a9565b6113a3612f6d565b80925050505b90565b6000600e60003373ffffffffffffffffffffffffffffffffffffffff1673ffffffffffffffffffffffffffffffffffffffff1681526020019081526020016000205490506000600d600083815260200190815260200160002090506114bf6040518060600160405280603c8152602001614999603c9139826001018054611432906141b2565b80601f016020809104026020016040519081016040528092919081815260200182805461145e906141b2565b80156114ab5780601f10611480576101008083540402835291602001916114ab565b820191906000526020600020905b81548152906001019060200180831161148e57829003601f168201915b5050505050836003015484600501546128a7565b6115976040518060400160405280601b81526020017f426f73732025732068617320257320485020616e64202573204144000000000081525060066000018054611508906141b2565b80601f0160208091040260200160405190810160405280929190818152602001828054611534906141b2565b80156115815780601f1061155657610100808354040283529160200191611581565b820191906000526020600020905b81548152906001019060200180831161156457829003601f168201915b50505050506006600201546006600401546128a7565b60008160030154116115de576040517f08c379a00000000000000000000000000000000000000000000000000000000081526004016115d590613d76565b60405180910390fd5b600060066002015411611626576040517f08c379a000000000000000000000000000000000000000000000000000000000815260040161161d90613c96565b60405180910390fd5b80600501546006600201541015611647576000600660020181905550611666565b806005015460066002015461165c91906140c8565b6006600201819055505b6006600401548160030154101561168657600081600301819055506116a4565b600660040154816003015461169b91906140c8565b81600301819055505b7f32bd565ee3f2cb5ddd742bbecd6048d3e9abe90b3827a40c2b72d232e71e3c9d3360066002015483600301546040516116e093929190613a84565b60405180910390a161170f6040518060600160405280602581526020016148de60259139600660020154612949565b611735604051806060016040528060288152602001614943602891398260030154612949565b5050565b6000600560008473ffffffffffffffffffffffffffffffffffffffff1673ffffffffffffffffffffffffffffffffffffffff16815260200190815260200160002060008373ffffffffffffffffffffffffffffffffffffffff1673ffffffffffffffffffffffffffffffffffffffff16815260200190815260200160002060009054906101000a900460ff16905092915050565b6060600060016117dd600b6129e5565b6117e791906140c8565b67ffffffffffffffff811115611826577f4e487b7100000000000000000000000000000000000000000000000000000000600052604160045260246000fd5b60405190808252806020026020018201604052801561185f57816020015b61184c612f6d565b8152602001906001900390816118445790505b5090506000600190505b611873600b6129e5565b811015611a4d576000600d60008381526020019081526020016000209050806040518060c0016040529081600082015481526020016001820180546118b7906141b2565b80601f01602080910402602001604051908101604052809291908181526020018280546118e3906141b2565b80156119305780601f1061190557610100808354040283529160200191611930565b820191906000526020600020905b81548152906001019060200180831161191357829003601f168201915b50505050508152602001600282018054611949906141b2565b80601f0160208091040260200160405190810160405280929190818152602001828054611975906141b2565b80156119c25780601f10611997576101008083540402835291602001916119c2565b820191906000526020600020905b8154815290600101906020018083116119a557829003601f168201915b505050505081526020016003820154815260200160048201548152602001600582015481525050836001846119f791906140c8565b81518110611a2e577f4e487b7100000000000000000000000000000000000000000000000000000000600052603260045260246000fd5b6020026020010181905250508080611a4590614215565b915050611869565b508091505090565b6000611a61600b6129e5565b9050611a6d33826129f3565b6040518060c00160405280838152602001600c8481548110611ab8577f4e487b7100000000000000000000000000000000000000000000000000000000600052603260045260246000fd5b90600052602060002090600602016001018054611ad4906141b2565b80601f0160208091040260200160405190810160405280929190818152602001828054611b00906141b2565b8015611b4d5780601f10611b2257610100808354040283529160200191611b4d565b820191906000526020600020905b815481529060010190602001808311611b3057829003601f168201915b50505050508152602001600c8481548110611b91577f4e487b7100000000000000000000000000000000000000000000000000000000600052603260045260246000fd5b90600052602060002090600602016002018054611bad906141b2565b80601f0160208091040260200160405190810160405280929190818152602001828054611bd9906141b2565b8015611c265780601f10611bfb57610100808354040283529160200191611c26565b820191906000526020600020905b815481529060010190602001808311611c0957829003601f168201915b50505050508152602001600c8481548110611c6a577f4e487b7100000000000000000000000000000000000000000000000000000000600052603260045260246000fd5b9060005260206000209060060201600301548152602001600c8481548110611cbb577f4e487b7100000000000000000000000000000000000000000000000000000000600052603260045260246000fd5b9060005260206000209060060201600401548152602001600c8481548110611d0c577f4e487b7100000000000000000000000000000000000000000000000000000000600052603260045260246000fd5b906000526020600020906006020160050154815250600d6000838152602001908152602001600020600082015181600001556020820151816001019080519060200190611d5a929190612fa3565b506040820151816002019080519060200190611d77929190612fa3565b50606082015181600301556080820151816004015560a08201518160050155905050611dbc6040518060600160405280602e815260200161496b602e91398284612a11565b80600e60003373ffffffffffffffffffffffffffffffffffffffff1673ffffffffffffffffffffffffffffffffffffffff16815260200190815260200160002081905550611e0a600b611eeb565b7f4bc303fd457a97b4691b9af582ce71868a3d258638c8d4f8c60988a0f0bfb8cd338284604051611e3d93929190613a84565b60405180910390a15050565b611ee584848484604051602401611e639493929190613b1a565b6040516020818303038152906040527f8d142cdd000000000000000000000000000000000000000000000000000000007bffffffffffffffffffffffffffffffffffffffffffffffffffffffff19166020820180517bffffffffffffffffffffffffffffffffffffffffffffffffffffffff8381831617835250505050612ab0565b50505050565b6001816000016000828254019250508190555050565b60007f01ffc9a7000000000000000000000000000000000000000000000000000000007bffffffffffffffffffffffffffffffffffffffffffffffffffffffff1916827bffffffffffffffffffffffffffffffffffffffffffffffffffffffff1916149050919050565b611f7481612ad9565b611fb3576040517f08c379a0000000000000000000000000000000000000000000000000000000008152600401611faa90613dd6565b60405180910390fd5b50565b600033905090565b816004600083815260200190815260200160002060006101000a81548173ffffffffffffffffffffffffffffffffffffffff021916908373ffffffffffffffffffffffffffffffffffffffff160217905550808273ffffffffffffffffffffffffffffffffffffffff1661203183610902565b73ffffffffffffffffffffffffffffffffffffffff167f8c5be1e5ebec7d5bd14f71427d1e84f3dd0314c0f7b2291e5b200ac8c7c3b92560405160405180910390a45050565b60008061208383610902565b90508073ffffffffffffffffffffffffffffffffffffffff168473ffffffffffffffffffffffffffffffffffffffff1614806120c557506120c48185611739565b5b8061210357508373ffffffffffffffffffffffffffffffffffffffff166120eb84610724565b73ffffffffffffffffffffffffffffffffffffffff16145b91505092915050565b8273ffffffffffffffffffffffffffffffffffffffff1661212c82610902565b73ffffffffffffffffffffffffffffffffffffffff1614612182576040517f08c379a000000000000000000000000000000000000000000000000000000000815260040161217990613cd6565b60405180910390fd5b600073ffffffffffffffffffffffffffffffffffffffff168273ffffffffffffffffffffffffffffffffffffffff1614156121f2576040517f08c379a00000000000000000000000000000000000000000000000000000000081526004016121e990613d16565b60405180910390fd5b6121fd838383612b45565b612208600082611fbe565b6001600360008573ffffffffffffffffffffffffffffffffffffffff1673ffffffffffffffffffffffffffffffffffffffff168152602001908152602001600020600082825461225891906140c8565b925050819055506001600360008473ffffffffffffffffffffffffffffffffffffffff1673ffffffffffffffffffffffffffffffffffffffff16815260200190815260200160002060008282546122af9190613fe7565b92505081905550816002600083815260200190815260200160002060006101000a81548173ffffffffffffffffffffffffffffffffffffffff021916908373ffffffffffffffffffffffffffffffffffffffff160217905550808273ffffffffffffffffffffffffffffffffffffffff168473ffffffffffffffffffffffffffffffffffffffff167fddf252ad1be2c89b69c2b068fc378daa952ba7f163c4a11628f55a4df523b3ef60405160405180910390a461236e838383612b4a565b505050565b8173ffffffffffffffffffffffffffffffffffffffff168373ffffffffffffffffffffffffffffffffffffffff1614156123e2576040517f08c379a00000000000000000000000000000000000000000000000000000000081526004016123d990613d36565b60405180910390fd5b80600560008573ffffffffffffffffffffffffffffffffffffffff1673ffffffffffffffffffffffffffffffffffffffff16815260200190815260200160002060008473ffffffffffffffffffffffffffffffffffffffff1673ffffffffffffffffffffffffffffffffffffffff16815260200190815260200160002060006101000a81548160ff0219169083151502179055508173ffffffffffffffffffffffffffffffffffffffff168373ffffffffffffffffffffffffffffffffffffffff167f17307eab39ab6107e8899845ad3d59bd9653f200f220920489ca2b5937696c31836040516124d39190613add565b60405180910390a3505050565b6124eb84848461210c565b6124f784848484612b4f565b612536576040517f08c379a000000000000000000000000000000000000000000000000000000000815260040161252d90613cb6565b60405180910390fd5b50505050565b60606000821415612584576040518060400160405280600181526020017f300000000000000000000000000000000000000000000000000000000000000081525090506126e4565b600082905060005b600082146125b657808061259f90614215565b915050600a826125af919061403d565b915061258c565b60008167ffffffffffffffff8111156125f8577f4e487b7100000000000000000000000000000000000000000000000000000000600052604160045260246000fd5b6040519080825280601f01601f19166020018201604052801561262a5781602001600182028036833780820191505090505b5090505b600085146126dd5760018261264391906140c8565b9150600a85612652919061425e565b603061265e9190613fe7565b60f81b81838151811061269a577f4e487b7100000000000000000000000000000000000000000000000000000000600052603260045260246000fd5b60200101907effffffffffffffffffffffffffffffffffffffffffffffffffffffffffffff1916908160001a905350600a856126d6919061403d565b945061262e565b8093505050505b919050565b6060600082519050600081141561271257604051806020016040528060008152509150506128a2565b600060036002836127239190613fe7565b61272d919061403d565b6004612739919061406e565b9050600060208261274a9190613fe7565b67ffffffffffffffff811115612789577f4e487b7100000000000000000000000000000000000000000000000000000000600052604160045260246000fd5b6040519080825280601f01601f1916602001820160405280156127bb5781602001600182028036833780820191505090505b5090506000604051806060016040528060408152602001614903604091399050600181016020830160005b8681101561285f5760038101905062ffffff818a015116603f8160121c168401518060081b905060ff603f83600c1c1686015116810190508060081b905060ff603f8360061c1686015116810190508060081b905060ff603f831686015116810190508060e01b905080845260048401935050506127e6565b506003860660018114612879576002811461288957612894565b613d3d60f01b6002830352612894565b603d60f81b60018303525b508484525050819450505050505b919050565b612943848484846040516024016128c19493929190613b74565b6040516020818303038152906040527fd5cf17d0000000000000000000000000000000000000000000000000000000007bffffffffffffffffffffffffffffffffffffffffffffffffffffffff19166020820180517bffffffffffffffffffffffffffffffffffffffffffffffffffffffff8381831617835250505050612ab0565b50505050565b6129e1828260405160240161295f929190613c28565b6040516020818303038152906040527f9710a9d0000000000000000000000000000000000000000000000000000000007bffffffffffffffffffffffffffffffffffffffffffffffffffffffff19166020820180517bffffffffffffffffffffffffffffffffffffffffffffffffffffffff8381831617835250505050612ab0565b5050565b600081600001549050919050565b612a0d828260405180602001604052806000815250612ce6565b5050565b612aab838383604051602401612a2993929190613c58565b6040516020818303038152906040527f969cdd03000000000000000000000000000000000000000000000000000000007bffffffffffffffffffffffffffffffffffffffffffffffffffffffff19166020820180517bffffffffffffffffffffffffffffffffffffffffffffffffffffffff8381831617835250505050612ab0565b505050565b60008151905060006a636f6e736f6c652e6c6f679050602083016000808483855afa5050505050565b60008073ffffffffffffffffffffffffffffffffffffffff166002600084815260200190815260200160002060009054906101000a900473ffffffffffffffffffffffffffffffffffffffff1673ffffffffffffffffffffffffffffffffffffffff1614159050919050565b505050565b505050565b6000612b708473ffffffffffffffffffffffffffffffffffffffff16612d41565b15612cd9578373ffffffffffffffffffffffffffffffffffffffff1663150b7a02612b99611fb6565b8786866040518563ffffffff1660e01b8152600401612bbb9493929190613a38565b602060405180830381600087803b158015612bd557600080fd5b505af1925050508015612c0657506040513d601f19601f82011682018060405250810190612c0391906132e7565b60015b612c89573d8060008114612c36576040519150601f19603f3d011682016040523d82523d6000602084013e612c3b565b606091505b50600081511415612c81576040517f08c379a0000000000000000000000000000000000000000000000000000000008152600401612c7890613cb6565b60405180910390fd5b805181602001fd5b63150b7a0260e01b7bffffffffffffffffffffffffffffffffffffffffffffffffffffffff1916817bffffffffffffffffffffffffffffffffffffffffffffffffffffffff191614915050612cde565b600190505b949350505050565b612cf08383612d64565b612cfd6000848484612b4f565b612d3c576040517f08c379a0000000000000000000000000000000000000000000000000000000008152600401612d3390613cb6565b60405180910390fd5b505050565b6000808273ffffffffffffffffffffffffffffffffffffffff163b119050919050565b600073ffffffffffffffffffffffffffffffffffffffff168273ffffffffffffffffffffffffffffffffffffffff161415612dd4576040517f08c379a0000000000000000000000000000000000000000000000000000000008152600401612dcb90613db6565b60405180910390fd5b612ddd81612ad9565b15612e1d576040517f08c379a0000000000000000000000000000000000000000000000000000000008152600401612e1490613cf6565b60405180910390fd5b612e2960008383612b45565b6001600360008473ffffffffffffffffffffffffffffffffffffffff1673ffffffffffffffffffffffffffffffffffffffff1681526020019081526020016000206000828254612e799190613fe7565b92505081905550816002600083815260200190815260200160002060006101000a81548173ffffffffffffffffffffffffffffffffffffffff021916908373ffffffffffffffffffffffffffffffffffffffff160217905550808273ffffffffffffffffffffffffffffffffffffffff16600073ffffffffffffffffffffffffffffffffffffffff167fddf252ad1be2c89b69c2b068fc378daa952ba7f163c4a11628f55a4df523b3ef60405160405180910390a4612f3a60008383612b4a565b5050565b6040518060a0016040528060608152602001606081526020016000815260200160008152602001600081525090565b6040518060c001604052806000815260200160608152602001606081526020016000815260200160008152602001600081525090565b828054612faf906141b2565b90600052602060002090601f016020900481019282612fd15760008555613018565b82601f10612fea57805160ff1916838001178555613018565b82800160010185558215613018579182015b82811115613017578251825591602001919060010190612ffc565b5b5090506130259190613029565b5090565b5b8082111561304257600081600090555060010161302a565b5090565b600061305961305484613f29565b613f04565b90508281526020810184848401111561307157600080fd5b61307c848285614170565b509392505050565b60008135905061309381614881565b92915050565b6000813590506130a881614898565b92915050565b6000813590506130bd816148af565b92915050565b6000815190506130d2816148af565b92915050565b600082601f8301126130e957600080fd5b81356130f9848260208601613046565b91505092915050565b600081359050613111816148c6565b92915050565b60006020828403121561312957600080fd5b600061313784828501613084565b91505092915050565b6000806040838503121561315357600080fd5b600061316185828601613084565b925050602061317285828601613084565b9150509250929050565b60008060006060848603121561319157600080fd5b600061319f86828701613084565b93505060206131b086828701613084565b92505060406131c186828701613102565b9150509250925092565b600080600080608085870312156131e157600080fd5b60006131ef87828801613084565b945050602061320087828801613084565b935050604061321187828801613102565b925050606085013567ffffffffffffffff81111561322e57600080fd5b61323a878288016130d8565b91505092959194509250565b6000806040838503121561325957600080fd5b600061326785828601613084565b925050602061327885828601613099565b9150509250929050565b6000806040838503121561329557600080fd5b60006132a385828601613084565b92505060206132b485828601613102565b9150509250929050565b6000602082840312156132d057600080fd5b60006132de848285016130ae565b91505092915050565b6000602082840312156132f957600080fd5b6000613307848285016130c3565b91505092915050565b60006020828403121561332257600080fd5b600061333084828501613102565b91505092915050565b60006133458383613818565b905092915050565b613356816140fc565b82525050565b600061336782613f6a565b6133718185613f98565b93508360208202850161338385613f5a565b8060005b858110156133bf57848403895281516133a08582613339565b94506133ab83613f8b565b925060208a01995050600181019050613387565b50829750879550505050505092915050565b6133da8161410e565b82525050565b60006133eb82613f75565b6133f58185613fa9565b935061340581856020860161417f565b61340e8161434b565b840191505092915050565b600061342482613f80565b61342e8185613fba565b935061343e81856020860161417f565b6134478161434b565b840191505092915050565b600061345d82613f80565b6134678185613fcb565b935061347781856020860161417f565b6134808161434b565b840191505092915050565b600061349682613f80565b6134a08185613fdc565b93506134b081856020860161417f565b80840191505092915050565b60006134c9600b83613fdc565b91506134d48261435c565b600b82019050919050565b60006134ec602d83613fcb565b91506134f782614385565b604082019050919050565b600061350f603283613fcb565b915061351a826143d4565b604082019050919050565b6000613532602583613fcb565b915061353d82614423565b604082019050919050565b6000613555601c83613fcb565b915061356082614472565b602082019050919050565b6000613578603283613fdc565b91506135838261449b565b603282019050919050565b600061359b600e83613fdc565b91506135a6826144ea565b600e82019050919050565b60006135be602483613fcb565b91506135c982614513565b604082019050919050565b60006135e1601983613fcb565b91506135ec82614562565b602082019050919050565b6000613604602983613fcb565b915061360f8261458b565b604082019050919050565b6000613627602d83613fcb565b9150613632826145da565b604082019050919050565b600061364a600483613fdc565b915061365582614629565b600482019050919050565b600061366d603e83613fcb565b915061367882614652565b604082019050919050565b6000613690602083613fcb565b915061369b826146a1565b602082019050919050565b60006136b3600a83613fdc565b91506136be826146ca565b600a82019050919050565b60006136d6601883613fcb565b91506136e1826146f3565b602082019050919050565b60006136f9602183613fcb565b91506137048261471c565b604082019050919050565b600061371c601d83613fdc565b91506137278261476b565b601d82019050919050565b600061373f603d83613fdc565b915061374a82614794565b603d82019050919050565b6000613762602d83613fdc565b915061376d826147e3565b602d82019050919050565b6000613785602e83613fcb565b915061379082614832565b604082019050919050565b600060a08301600083015184820360008601526137b88282613419565b915050602083015184820360208601526137d28282613419565b91505060408301516137e76040860182613938565b5060608301516137fa6060860182613938565b50608083015161380d6080860182613938565b508091505092915050565b600060c0830160008301516138306000860182613938565b50602083015184820360208601526138488282613419565b915050604083015184820360408601526138628282613419565b91505060608301516138776060860182613938565b50608083015161388a6080860182613938565b5060a083015161389d60a0860182613938565b508091505092915050565b600060c0830160008301516138c06000860182613938565b50602083015184820360208601526138d88282613419565b915050604083015184820360408601526138f28282613419565b91505060608301516139076060860182613938565b50608083015161391a6080860182613938565b5060a083015161392d60a0860182613938565b508091505092915050565b61394181614166565b82525050565b61395081614166565b82525050565b6000613961826136a6565b915061396d828961348b565b9150613978826134bc565b9150613984828861348b565b915061398f8261356b565b915061399b828761348b565b91506139a682613732565b91506139b2828661348b565b91506139bd8261358e565b91506139c9828561348b565b91506139d482613755565b91506139e0828461348b565b91506139eb8261363d565b9150819050979650505050505050565b6000613a068261370f565b9150613a12828461348b565b915081905092915050565b6000602082019050613a32600083018461334d565b92915050565b6000608082019050613a4d600083018761334d565b613a5a602083018661334d565b613a676040830185613947565b8181036060830152613a7981846133e0565b905095945050505050565b6000606082019050613a99600083018661334d565b613aa66020830185613947565b613ab36040830184613947565b949350505050565b60006020820190508181036000830152613ad5818461335c565b905092915050565b6000602082019050613af260008301846133d1565b92915050565b60006020820190508181036000830152613b128184613452565b905092915050565b60006080820190508181036000830152613b348187613452565b90508181036020830152613b488186613452565b9050613b576040830185613947565b8181036060830152613b698184613452565b905095945050505050565b60006080820190508181036000830152613b8e8187613452565b90508181036020830152613ba28186613452565b9050613bb16040830185613947565b613bbe6060830184613947565b95945050505050565b600060a0820190508181036000830152613be18188613452565b90508181036020830152613bf58187613452565b9050613c046040830186613947565b613c116060830185613947565b613c1e6080830184613947565b9695505050505050565b60006040820190508181036000830152613c428185613452565b9050613c516020830184613947565b9392505050565b60006060820190508181036000830152613c728186613452565b9050613c816020830185613947565b613c8e6040830184613947565b949350505050565b60006020820190508181036000830152613caf816134df565b9050919050565b60006020820190508181036000830152613ccf81613502565b9050919050565b60006020820190508181036000830152613cef81613525565b9050919050565b60006020820190508181036000830152613d0f81613548565b9050919050565b60006020820190508181036000830152613d2f816135b1565b9050919050565b60006020820190508181036000830152613d4f816135d4565b9050919050565b60006020820190508181036000830152613d6f816135f7565b9050919050565b60006020820190508181036000830152613d8f8161361a565b9050919050565b60006020820190508181036000830152613daf81613660565b9050919050565b60006020820190508181036000830152613dcf81613683565b9050919050565b60006020820190508181036000830152613def816136c9565b9050919050565b60006020820190508181036000830152613e0f816136ec565b9050919050565b60006020820190508181036000830152613e2f81613778565b9050919050565b60006020820190508181036000830152613e50818461379b565b905092915050565b60006020820190508181036000830152613e7281846138a8565b905092915050565b6000602082019050613e8f6000830184613947565b92915050565b600060c082019050613eaa6000830189613947565b8181036020830152613ebc8188613452565b90508181036040830152613ed08187613452565b9050613edf6060830186613947565b613eec6080830185613947565b613ef960a0830184613947565b979650505050505050565b6000613f0e613f1f565b9050613f1a82826141e4565b919050565b6000604051905090565b600067ffffffffffffffff821115613f4457613f4361431c565b5b613f4d8261434b565b9050602081019050919050565b6000819050602082019050919050565b600081519050919050565b600081519050919050565b600081519050919050565b6000602082019050919050565b600082825260208201905092915050565b600082825260208201905092915050565b600082825260208201905092915050565b600082825260208201905092915050565b600081905092915050565b6000613ff282614166565b9150613ffd83614166565b9250827fffffffffffffffffffffffffffffffffffffffffffffffffffffffffffffffff038211156140325761403161428f565b5b828201905092915050565b600061404882614166565b915061405383614166565b925082614063576140626142be565b5b828204905092915050565b600061407982614166565b915061408483614166565b9250817fffffffffffffffffffffffffffffffffffffffffffffffffffffffffffffffff04831182151516156140bd576140bc61428f565b5b828202905092915050565b60006140d382614166565b91506140de83614166565b9250828210156140f1576140f061428f565b5b828203905092915050565b600061410782614146565b9050919050565b60008115159050919050565b60007fffffffff0000000000000000000000000000000000000000000000000000000082169050919050565b600073ffffffffffffffffffffffffffffffffffffffff82169050919050565b6000819050919050565b82818337600083830152505050565b60005b8381101561419d578082015181840152602081019050614182565b838111156141ac576000848401525b50505050565b600060028204905060018216806141ca57607f821691505b602082108114156141de576141dd6142ed565b5b50919050565b6141ed8261434b565b810181811067ffffffffffffffff8211171561420c5761420b61431c565b5b80604052505050565b600061422082614166565b91507fffffffffffffffffffffffffffffffffffffffffffffffffffffffffffffffff8214156142535761425261428f565b5b600182019050919050565b600061426982614166565b915061427483614166565b925082614284576142836142be565b5b828206905092915050565b7f4e487b7100000000000000000000000000000000000000000000000000000000600052601160045260246000fd5b7f4e487b7100000000000000000000000000000000000000000000000000000000600052601260045260246000fd5b7f4e487b7100000000000000000000000000000000000000000000000000000000600052602260045260246000fd5b7f4e487b7100000000000000000000000000000000000000000000000000000000600052604160045260246000fd5b6000601f19601f8301169050919050565b7f202d2d204e465420233a20000000000000000000000000000000000000000000600082015250565b7f4572726f723a20626f7373206d757374206861766520485020746f206174746160008201527f636b206368617261637465722e00000000000000000000000000000000000000602082015250565b7f4552433732313a207472616e7366657220746f206e6f6e20455243373231526560008201527f63656976657220696d706c656d656e7465720000000000000000000000000000602082015250565b7f4552433732313a207472616e736665722066726f6d20696e636f72726563742060008201527f6f776e6572000000000000000000000000000000000000000000000000000000602082015250565b7f4552433732313a20746f6b656e20616c7265616479206d696e74656400000000600082015250565b7f222c20226465736372697074696f6e223a2022416e2065706963204e4654222c60008201527f2022696d616765223a2022697066733a2f2f0000000000000000000000000000602082015250565b7f2c20226d61785f76616c7565223a000000000000000000000000000000000000600082015250565b7f4552433732313a207472616e7366657220746f20746865207a65726f2061646460008201527f7265737300000000000000000000000000000000000000000000000000000000602082015250565b7f4552433732313a20617070726f766520746f2063616c6c657200000000000000600082015250565b7f4552433732313a2061646472657373207a65726f206973206e6f74206120766160008201527f6c6964206f776e65720000000000000000000000000000000000000000000000602082015250565b7f4572726f723a20636861726163746572206d757374206861766520485020746f60008201527f2061747461636b20626f73732e00000000000000000000000000000000000000602082015250565b7f7d205d7d00000000000000000000000000000000000000000000000000000000600082015250565b7f4552433732313a20617070726f76652063616c6c6572206973206e6f7420746f60008201527f6b656e206f776e6572206e6f7220617070726f76656420666f7220616c6c0000602082015250565b7f4552433732313a206d696e7420746f20746865207a65726f2061646472657373600082015250565b7f7b226e616d65223a202200000000000000000000000000000000000000000000600082015250565b7f4552433732313a20696e76616c696420746f6b656e2049440000000000000000600082015250565b7f4552433732313a20617070726f76616c20746f2063757272656e74206f776e6560008201527f7200000000000000000000000000000000000000000000000000000000000000602082015250565b7f646174613a6170706c69636174696f6e2f6a736f6e3b6261736536342c000000600082015250565b7f222c202261747472696275746573223a205b207b202274726169745f7479706560008201527f223a20224865616c746820506f696e7473222c202276616c7565223a20000000602082015250565b7f7d2c207b202274726169745f74797065223a202241747461636b2044616d616760008201527f65222c202276616c7565223a2000000000000000000000000000000000000000602082015250565b7f4552433732313a2063616c6c6572206973206e6f7420746f6b656e206f776e6560008201527f72206e6f7220617070726f766564000000000000000000000000000000000000602082015250565b61488a816140fc565b811461489557600080fd5b50565b6148a18161410e565b81146148ac57600080fd5b50565b6148b88161411a565b81146148c357600080fd5b50565b6148cf81614166565b81146148da57600080fd5b5056fe506c617965722061747461636b656420626f73732e204e657720626f73732068703a2025734142434445464748494a4b4c4d4e4f505152535455565758595a6162636465666768696a6b6c6d6e6f707172737475767778797a303132333435363738392b2f426f73732061747461636b656420706c617965722e204e657720706c617965722068703a2025730a4d696e746564204e465420772f20746f6b656e496420257320616e6420636861726163746572496e6465782025730a506c6179657220772f206368617261637465722025732061626f757420746f2061747461636b2e2048617320257320485020616e64202573204144a26469706673582212200fb78326b043508c058365dda83c795381b8d4c71de1cdb204cad6937ce4635664736f6c63430008010033446f6e6520696e697469616c697a696e6720257320772f2048502025732c20696d67202573446f6e6520696e697469616c697a696e6720626f737320257320772f2048502025732c20696d67202573",
  "linkReferences": {},
  "deployedLinkReferences": {}
}